:020000040800F2
:10000000F00E0020C1010008A107000899070008B0
:100010009D0700086D040008BD0E000800000000E8
:10002000000000000000000000000000450A000879
:10003000A104000800000000E9080008310B0008D6
:10004000DB010008DB010008DB010008DB01000820
:10005000DB010008DB010008A3040008DB01000845
:10006000DB010008DB010008DB010008DB01000800
:10007000DB010008DB010008DB010008DB010008F0
:10008000DB010008DB010008DB01000800000000C4
:10009000000000000000000000000000DB0100087C
:1000A000DB010008DB010008DB010008DB010008C0
:1000B000DB010008DB010008DB010008DB010008B0
:1000C000DB010008DB010008DB010008DB010008A0
:1000D000DB010008990B0008E10B0008110C000877
:1000E000DB010008DB010008DB0100080000000064
:1000F0000000000000000000000000000000000000
:1001000000000000000000000000000000000000EF
:100110000000000000000000DB010008DB01000817
:1001200000F002F800F03CF80AA090E8000C8244CD
:100130008344AAF10107DA4501D100F031F8AFF2AA
:10014000090EBAE80F0013F0010F18BFFB1A43F0B5
:10015000010318474813000068130000103A24BF39
:1001600078C878C1FAD8520724BF30C830C144BF1C
:1001700004680C607047000000230024002500265E
:10018000103A28BF78C1FBD8520728BF30C148BFFA
:100190000B607047002070471FB51FBD10B510BD24
:1001A00000F036F91146FFF7F7FF00F093FF00F07B
:1001B00054F903B4FFF7F2FF03BC00F088FE00001F
:1001C0000948804709480047FEE7FEE7FEE7FEE7EB
:1001D000FEE7FEE7FEE7FEE7FEE7FEE70448054927
:1001E000054A064B70470000350B00082101000846
:1001F000F0080020F00E0020F00A0020F00A002095
:10020000704700000FB4044910B503AA029800F02B
:1002100021F810BC5DF814FB1800002070477047EF
:100220007047704701694A1C02610878704700B541
:100230008FB0CDE901310021059105497944CDE91F
:1002400003101146684600F017F80FB000BD00001B
:10025000E5FFFFFF074B70B50D467B44FFF7E7FF57
:100260000446284600F0CCF810B14FF0FF3070BDC6
:10027000204670BD4F0D00002DE9F05F8946044611
:100280004FF0000ADFF874B1FB44C0F820A020460C
:10029000E1688847002874D0252806D0D4E90121D8
:1002A0009047206A401C2062F1E700265F46204606
:1002B000E16888472028054607DB312D05D27819EB
:1002C00010F8200C08B10643F1E7B00701D526F07D
:1002D0000406C4F81CA00027C4F818A02A2D09D0D1
:1002E000284600F0EDFD38B304EB8708303DC8F830
:1002F000185019E059F8041B204604EB870291615D
:10030000E1688847012F054618D1E069002820DA06
:1003100026F020061DE0D8F8180000EB800005EB61
:1003200040003038C8F818002046E1688847054684
:1003300000F0C6FD0028EED1012F0AD02E2D08D1E5
:100340002046E16888477F1C0546022F46F02006BC
:10035000C4DBA069002803DA404246F00106A06130
:10036000F00701D026F010066C2D0BD0682D09D0B7
:100370004C2D39D06A2D35D0742D35D07A2D33D00F
:1003800016E038E0E1682F4620468847B842054627
:1003900009D16C2F26D04FF48060E16806432046D7
:1003A0008847054604E06C2F1AD04FF4807006434E
:1003B0000DB3A5F14100192802D8203546F4006696
:1003C0004A462946204626604E46FFF7E3FE80B1A6
:1003D00001280BD0F61D26F0070000F1080956E7AA
:1003E0004020E4E78020D8E70020D6E706F10409A2
:1003F0004DE7284652E7206ABDE8F09FFC11000057
:10040000007B00F080007047004870479008002093
:100410007546FFF7F9FFAE4605006946534620F0E2
:100420000700854618B020B5FFF7D8FEBDE820408C
:100430004FF000064FF000074FF000084FF0000BA0
:1004400021F00701AC46ACE8C009ACE8C009ACE853
:10045000C009ACE8C0098D46704710B50446AFF33B
:1004600000802046BDE81040FFF7A3BE00BFFEE7B6
:1004700000B5094800F00EFD002304E00020064905
:10048000C854581CC3B2054800788342F6DB0020EC
:100490000249087000BD0000400000201C00002040
:1004A000704710B5012000F00DF820B100F092FD6A
:1004B000012000F001F810BD0149086070470000FC
:1004C00014040140014600200022074B1B6803EA88
:1004D0000102054B14331B680B4013B10AB1012014
:1004E00000E0002070470000000401400021234983
:1004F0008279002A3AD00A46126803689A430B466A
:100500001A600A1D126803689A430B1D1A6002796B
:1005100011440A6803681A430A60184A08321268CC
:1005200003689A43154B08331A601A1D1268036852
:100530009A43124B0C331A604279102A0ED11A1FBB
:10054000126803681A430D4B08331A601A1D1268AB
:1005500003681A43094B0C331A600DE007494279CE
:1005600011440A6803681A430A6005E002791144DD
:100570000A6803689A430A6070470000000401405B
:1005800030B500228B071C0F0F2303FA04F20B4B2C
:100590008C1053F824309343084C8D1044F82530C8
:1005A00023468C1053F824308C07240F00FA04F4EF
:1005B0002343024C8D1044F8253030BD0800014023
:1005C0002DE9F041024600250026002000230024EA
:1005D000002791F803C00CF00F0591F803C00CF050
:1005E000100CBCF1000F03D091F802C04CEA0505D5
:1005F00091F800C0BCF1000F31D0146800202BE04E
:100600004FF0010C0CFA00F3B1F800C00CEA03063D
:100610009E4220D183004FF00F0C0CFA03F7BC432D
:1006200005FA03FC4CEA040491F803C0BCF1280F5E
:1006300006D14FF0010C0CFA00FCC2F814C00AE01D
:1006400091F803C0BCF1480F05D14FF0010C0CFA32
:1006500000FCC2F810C0401C0828D1D31460B1F8C7
:1006600000C0BCF1FF0F34DD546800202EE000F123
:10067000080C4FF0010808FA0CF3B1F800C00CEABE
:1006800003069E4221D183004FF00F0C0CFA03F7B2
:10069000BC4305FA03FC4CEA040491F803C0BCF126
:1006A000280F05D100F1080C08FA0CF8C2F81480E4
:1006B00091F803C0BCF1480F07D100F1080C4FF0CE
:1006C000010808FA0CF8C2F81080401C0828CED3A4
:1006D0005460BDE8F0810246002093680B400BB1E6
:1006E000012000E0002070474161704701617047C0
:1006F00010B50024FFF7BCFE11A0FFF783FD4FF4F7
:10070000FA7000F009FC12A1144800F02EFD044616
:1007100034B113A0FFF776FD4FF4FA7000F0FCFB44
:10072000FFF7A6FE12A0FFF76DFD4FF4FA7000F080
:10073000F3FBFFF79DFE13A0FFF764FD10BD000063
:1007400041542B434750535057523F0D0A0000006D
:100750002B434750535057523A203000400000205E
:1007600041542B434750535057523D310D0A00001E
:1007700041542B434750535354415455533F0D0A52
:100780000000000041542B434750534F55543D3215
:1007900035350D0A0000000000BFFEE700BFFEE790
:1007A0007047000070B5002100230F22C47804B305
:1007B000154C246804F4E064C4F5E064210AC1F136
:1007C0000403CA40447804FA03F1847814402143B6
:1007D00009010E4C0678A155047804F01F05012488
:1007E000AC4005786D11AD0005F1E025C5F800417C
:1007F00009E0047804F01F050124AC40044D06789C
:10080000761145F8264070BD0CED00E000E400E0F4
:1008100080E100E002490143024A11607047000094
:100820000000FA050CED00E010B5002400F0E6FC35
:1008300000F0FAFC27A0FFF7E5FC4FF4967000F0FB
:100840006BFB26A1264800F090FC044621A0FFF790
:10085000D9FC4FF4967000F05FFB20A1204800F017
:1008600084FC0446BCB920211E48FFF73DFF4FF42D
:10087000967000F051FB4FF4967000F04DFB202174
:100880001848FFF733FF4FF47A7000F045FB4FF440
:100890007A7000F041FB0FA0FFF7B4FC4FF49670A4
:1008A00000F03AFB0DA10E4800F05FFC04460BE09F
:1008B00008A0FFF7A7FC4FF4967000F02DFB07A1EE
:1008C000074800F052FC0446002CF1D0FFF7D0FDA1
:1008D00010BD000041540D0A000000004F4B000005
:1008E00040000020000801407047000029B1064A7E
:1008F000D2690243044BDA6104E0034AD2698243BD
:10090000014BDA61704700000010024029B1064A2D
:1009100012690243044B1A6104E0034A12698243DC
:10092000014B1A61704700000010024029B1064ACD
:1009300092690243044B9A6104E0034A926982433C
:10094000014B9A61704700000010024029B1064A2D
:10095000D2680243044BDA6004E0034AD26882435F
:10096000014BDA60704700000010024070B50021B2
:1009700000230024002200252C4E766806F00C018E
:1009800021B1042905D0082921D105E0284E0660AF
:1009900020E0284E06601DE0244E766806F47013B1
:1009A000224E766806F48034022606EB93431CB987
:1009B000214E5E43066009E01C4EF66A06F00F0603
:1009C000751C1C4EB6FBF5F65E43066002E0184E41
:1009D000066000BF00BF154E766806F0F0010909F9
:1009E000164E725C0668D6404660104E766806F475
:1009F000E061090A114E725C4668D64086600B4E73
:100A0000766806F46051C90A0C4E725C4668D6409E
:100A1000C660064E766806F44041890B084E725C4B
:100A2000C668B6FBF2F6066170BD00000010024019
:100A300000127A0000366E0100093D002C000020F3
:100A40003C000020704710B500F002F810BD000017
:100A50000CB50020019000902A48006840F48030D6
:100A60002849086000BF2748006800F40030009063
:100A70000198401C0190009818B90198B0F5A06F3A
:100A8000F1D12048006800F4003010B1012000903E
:100A900001E0002000900098012831D119484068F9
:100AA0001849486008464068486008464068486001
:100AB0000846406820F47C1048600846406840F4CE
:100AC000403048600846006840F08070086000BF11
:100AD0000C48006800F000700028F9D00948406810
:100AE00020F00300074948600846406840F00200D3
:100AF000486000BF0348406800F00C000828F9D1A6
:100B00000CBD000000100240042808D14FF0E02185
:100B1000096941F004014FF0E022116107E04FF054
:100B2000E021096921F004014FF0E02211617047D2
:100B30007047000010B51448006840F001001249E9
:100B4000086008464068114908400F494860084657
:100B500000680F4908400C4908600846006820F406
:100B6000802008600846406820F4FE0048604FF48A
:100B70001F0088600020C862FFF765FF4FF000602B
:100B80000449086010BD0000001002400000FFF89A
:100B9000FFFFF6FE08ED00E010B540F225510C48CD
:100BA00000F0B2F898B10A4800F06AF9C1B20948F9
:100BB00002780078401C074B18700748815418468B
:100BC0000078401E044A115C044800F05EF910BD34
:100BD000003801401C000020400000200048004078
:100BE00010B540F22551074800F08EF848B105488D
:100BF00000F046F90449487008464178034800F07F
:100C000044F910BD0044004040020020004800406C
:100C100010B540F225510C4800F076F898B10A481A
:100C200000F02EF9C1B2094802680068401C074B69
:100C300018600748815418460068401E044A115C39
:100C4000014800F022F910BD0048004028000020B3
:100C50008F07002021B1828942F40052828104E092
:100C600082894DF6FF731A408281704710B50446A1
:100C70002048844209D101218803FFF767FE002143
:100C80004FF48040FFF762FE32E01B48844209D1F6
:100C900001214804FFF73AFE00214FF40030FFF72E
:100CA00035FE25E01548844209D101218804FFF76B
:100CB0002DFE00214FF48020FFF728FE18E0104899
:100CC000844209D10121C804FFF720FE00214FF41E
:100CD0000020FFF71BFE0BE00A48844208D10121E7
:100CE0000805FFF713FE00214FF48010FFF70EFEFA
:100CF00010BD0000003801400044004000480040A2
:100D0000004C00400050004070B502460024002313
:100D10000025002040F66A16B14200D100BFC1F3A1
:100D2000421501F01F03012606FA03F3012D02D13B
:100D30009689334006E0022D02D1168A334001E045
:100D4000968A33400C12012606FA04F416883440C1
:100D500013B10CB1012000E0002070BDF0B50346D6
:100D6000002400260025002040F66A17B94200D171
:100D700000BF1846C1F3421401F01F06012707FA0D
:100D800006F5012C01D10C3004E0022C01D1103009
:100D900000E014301AB107682F43076002E00768CB
:100DA000AF430760F0BD00002DE9F04786B005466F
:100DB0000E460024A24600BFA1460027B08900B11C
:100DC00000BF2F462C8A4CF6FF700440F088044385
:100DD0002C82AC894EF6F3100440B0883189084368
:100DE000718908430443AC81AC8A4FF6FF4004404C
:100DF000B0890443AC8201A8FFF7B8FD1F488742C1
:100E000002D1DDF810A001E0DDF80CA0A88900F403
:100E1000004040B10AEBCA0000EB0A1031684900FB
:100E2000B0FBF1F807E00AEBCA0000EB0A103168EA
:100E30008900B0FBF1F86420B8FBF0F00401200950
:100E4000642101FB1089A88900F4004040B13220E0
:100E500000EBC900B0FBF1F000F00700044308E02C
:100E6000322000EB09106421B0FBF1F000F00F001C
:100E700004432C8106B0BDE8F08700000038014033
:100E800001468888C0F308007047C1F308028280D9
:100E9000704700000BE000BF0749098801F04001DE
:100EA0000029F9D00178044A121D1180401C0178F4
:100EB0000029F0D1704700000048004000BFFEE765
:100EC00030380A2801D201207047002070470146BF
:100ED00000BF704710B56FF00400FFF715FE0A4819
:100EE00000680A49B0FBF1F009490870084600782B
:100EF00000EB4001C1EBC0104FF6FF7101EAC000EA
:100F00000449088010BD00000000002000127A0093
:100F100014000020160000200146114A12884A439E
:100F20004FF0E0235A6100229A611A46126942F09A
:100F300001021A6100BF4FF0E022106900F00102C7
:100F40001AB100F48032002AF5D04FF0E022126985
:100F500022F001024FF0E0231A6100229A617047EB
:100F6000160000200EB501210846FFF7DFFC002126
:100F70000846FFF705FB0120019000208DF80800CE
:100F80000C208DF8090001208DF80A0001A8FFF758
:100F9000ADFA06208DF8000000208DF80100022037
:100FA0008DF802006846FFF7FDFB0EBD00BF054A45
:100FB000128802F04002002AF9D0C2B2014B1B1D78
:100FC0001A8070470038014010B500F001F900F0B8
:100FD00041F910BD10B540210148FFF785FB10BD58
:100FE000000C014010B500BF01210548FFF773FB5D
:100FF0000028F9D140210348FFF778FB10BD00001D
:1010000000080140000C014008B501210820FFF74D
:101010008DFC8020ADF8000010208DF80300032027
:101020008DF8020069460248FFF7CAFA08BD0000C1
:10103000000C014008B501211020FFF777FC4FF4A8
:101040000050ADF8000010208DF8030003208DF84B
:10105000020069460F48FFF7B3FA4FF48040ADF83D
:10106000000010208DF8030003208DF8020069466F
:101070000848FFF7A5FA4FF40040ADF80000102033
:101080008DF8030003208DF8020069460148FFF740
:1010900097FA08BD0010014008B501210820FFF7AC
:1010A00045FC0420ADF8000010208DF8030003205B
:1010B0008DF8020069460248FFF782FA08BD000079
:1010C000000C014010B5FFF79FFFFFF7B3FFFFF7DC
:1010D000E3FF10BD1FB5174B0FCB8DE80F00FFF7D7
:1010E00073FFFFF7EFFFFFF77DFFFFF7F3FE4FF40E
:1010F000A060FFF78FFBFFF735FF4FF4E13000F002
:10110000BFF84FF4E13000F00BF94FF4E13000F09C
:101110005DF9FFF789FB01210748FFF7E5FA07A012
:10112000FFF770F8FFF7E4FA03E04FF47A70FFF787
:10113000F3FEFAE778140008000C01402B2B2B007B
:10114000F0B503460C461E46A4460AE035789CF8E6
:101150000070761C0CF1010CE91B09B10846F0BDCA
:10116000521E002AF2D10020F9E72DE9F041044691
:101170000D460027B846287810B92046BDE8F08112
:1011800000BF00E0641C207818B1207829788842DC
:10119000F8D1002602E008F10108761CA05D0028C5
:1011A000F9D1002601E07F1C761CA85D0028FAD149
:1011B000B84500DAE2E73A4629462046FFF7C0FF85
:1011C00008B92046DAE7641C4FF000080027D8E78A
:1011D00008B501210420FFF7A9FB0120ADF80000AC
:1011E00004208DF8030003208DF8020069460248B0
:1011F000FFF7E6F908BD00000008014008B501212D
:101200000420FFF793FB2020ADF8000010208DF89C
:10121000030003208DF8020069460248FFF7D0F969
:1012200008BD00000008014008B501210820FFF7B3
:101230007DFB0120ADF8000010208DF80300032095
:101240008DF8020069460248FFF7BAF908BD0000B0
:10125000000C014008B501210820FFF767FB402082
:10126000ADF8000010208DF8030003208DF8020077
:1012700069460248FFF7A4F908BD0000000C0140D0
:1012800010B586B00446012144F20400FFF74EFB7E
:101290004FF40070ADF8140003208DF816001820EC
:1012A0008DF8170005A91C48FFF78AF94FF48060F4
:1012B000ADF8140004208DF8170005A91648FFF7B3
:1012C0007FF925208DF8000002208DF801008DF8AF
:1012D000020001208DF803006846FFF763FA0194CD
:1012E0000020ADF80800ADF80A00ADF80C00ADF82C
:1012F00010000C20ADF80E0001A90848FFF754FDBE
:10130000012240F225510548FFF728FD012103483D
:10131000FFF7A0FC06B010BD0008014000380140F6
:1013200010B586B0044601210420FFF7FFFA012121
:101330004804FFF7DBFA2348FFF798FC0420ADF8D8
:10134000140003208DF8160018208DF8170005A949
:101350001D48FFF735F90820ADF8140004208DF87A
:10136000170005A91848FFF72BF926208DF8000073
:1013700001208DF8010002208DF8020001208DF877
:1013800003006846FFF70EFA01940020ADF808004C
:10139000ADF80A00ADF80C00ADF810000C20ADF867
:1013A0000E0001A90748FFF7FFFC012240F225517A
:1013B0000448FFF7D3FC01210248FFF74BFC06B0BD
:1013C00010BD0000004400400008014010B586B088
:1013D000044601210820FFF7A9FA01218804FFF73C
:1013E00085FA2348FFF742FC4FF48060ADF8140003
:1013F00003208DF8160018208DF8170005A91D4848
:10140000FFF7DEF84FF40060ADF8140004208DF80B
:10141000170005A91748FFF7D3F827208DF800001B
:1014200002208DF801008DF8020001208DF80300E4
:101430006846FFF7B7F901940020ADF80800ADF851
:101440000A00ADF80C00ADF810000C20ADF80E004D
:1014500001A90748FFF7A8FC012240F225510448E2
:10146000FFF77CFC01210248FFF7F4FB06B010BD3A
:1014700000480040000C014068656C6C6F20776F7D
:10148000726C6421000000000400000800000000ED
:10149000000000020001000010000000BC14000861
:1014A00000000020400000005C010008FC1400085F
:1014B00040000020B00E00007801000800366E01E8
:1014C00000000000000000000102030406070809F4
:1014D000000000000000000000000000000000000C
:1014E00000000000000000000000000001020304F2
:0C14F000010203040607080902040608B4
:0400000508000121CD
:00000001FF
